:100000005446495312280122000008000000000055
:10001000000000800100000058919D0A00001000BF
:100020000000000000000000400000000000000090
:1000300000000000010000000000000000000000BF
:10004000544643530000100000D501002A0A6405FD
:10005000000001200101100007011000090110003B
:100060000B0110000D0110000F0110001F01100006
:100070001F0110001F0110001F01100011011000CE
:10008000130110001F01100015011000B7361000F9
:10009000B33710001901100019011000A96D1100EB
:1000A00019011000D9121000DF1210001901100000
:1000B000190110002733100019011000E51210007B
:1000C000CB381000F9021000311F10001901100088
:1000D0000000000000000000000000000000000020
:1000E0000000000000000000000000000000000010
:1000F0000000000000000000000000000000000000
:1001000000000000000000000000000000000000EF
:1001100000000000000000000000000000000000DF
:1001200000000000000000000000000000000000CF
:1001300000000000000000000000000000000000BF
:1001400000000000000000000000000000000000AF
:1001500000F010F8FEE7FEE7FEE7FEE7FEE7FEE749
:10016000FEE7FEE7FEE7FEE701480047FEE7FEE7A1
:100170001F01100000F002F800F04AF80AA090E811
:10018000000C82448344AAF10107DA4501D100F052
:100190003FF8AFF2090EBAE80F0013F0010F18BFD5
:1001A000FB1A43F001031847D4880100F4880100CA
:1001B0000A4410F8014B14F00F0508BF10F8015B5A
:1001C000240908BF10F8014B6D1E05D010F8013B43
:1001D0006D1E01F8013BF9D1641E03D0641E01F8C5
:1001E000015BFBD19142E4D370470000002300245F
:1001F00000250026103A28BF78C1FBD8520728BF37
:1002000030C148BF0B6070471FB51FBD10B510BD92
:10021000DFF80CD0FFF7F8FF04F000FB16F0DFFD6D
:100220000000012003B4FFF7F1FF03BC16F0DEFD70
:1002300000210028D8BF704700BF491C8842FBDC62
:100240007047704770477047704770477047017834
:10025000002908BF704710F8011F0029FBD1704723
:1002600082B0010F8DF80010C0F303618DF801100A
:10027000C0F303518DF80210C0F303418DF8031051
:10028000C0F303318DF80410C0F303218DF805107D
:10029000C0F303118DF8061000F00F008DF8070071
:1002A00000206A46115C0A2934BF303137311154BD
:1002B000401CC0B2082828BF0020F3D3401CC0B2A5
:1002C0000828FBD302B0704782B001098DF80010F6
:1002D00000F00F008DF8010000206A46115C0A2929
:1002E00034BF303137311154401CC0B2022828BF0E
:1002F0000020F3D3401CC0B20228FBD302B07047E9
:1003000082B0010B8DF80010C0F303218DF80110AD
:10031000C0F303118DF8021000F00F008DF80300F8
:1003200000206A46115C0A2934BF3031373111543C
:10033000401CC0B2042828BF0020F3D3401CC0B228
:100340000428FBD302B0704712484FF6FF710160DA
:1003500070471048104A0021016012681020506157
:100360000E48012203685A6003684022DA6003687D
:100370004FF40C621A6102685161026840F6FF7125
:1003800011620068EA21016305A010F8011F00292D
:10039000FBD1704700700020A882110098821100E4
:1003A00055415254204F50454E21210D0D00000063
:1003B0000B0ACAB2F849D1F800C0CCF81C0043F4CB
:1003C000FE400B6858610868006840F00103086847
:1003D00003600868C06810F0010FFAD008688068F0
:1003E0000B6840F00100986002F07F024FF400407B
:1003F00040EA022208684261086800680B6840F021
:10040000010018600868C06810F0010FFAD0086891
:1004100080680B6840F001009860086842610868D5
:1004200000680A6840F0010010600868C06810F0B9
:10043000010FFAD0086880680A6840F001009060F7
:1004400008688069C0B2704700F07F0041EA00216F
:10045000D1480268516101680968026841F00101F0
:1004600011600168C96811F0010FFAD0016889684C
:10047000006841F001018160704700F07F014FF496
:10048000004040EA0122C44801684A6101680968E5
:10049000036841F0010119600168C96811F0010F9A
:1004A000FAD001688968036841F001019960016828
:1004B0004A6101680968026841F001011160016840
:1004C000C96811F0010FFAD001688968026841F02B
:1004D0000101916000688069C0B2704710B58C4618
:1004E0000446FFF7CAFF20EA0C01E0B2BDE8104065
:1004F000AAE7704770B5A848002401210268C2F835
:10050000141302686FF0FE21C2F8201302689921CB
:10051000C2F8301300680321C161A048A04DA14E6C
:1005200000684FF0010390F8800190B935F823007E
:10053000C0F307217F20FFF787FFF01890F8C0165F
:1005400015F82300FFF780FF5B1CB3F5A67FEDDBFA
:1005500070BD35F82300C0F3072C644505D0644610
:100560000CF00F017F20FFF76FFFF01890F8C01616
:1005700015F82300FFF768FF5B1CB3F5A67FE8DBE7
:1005800070BD10B504F052F9834B84464FF004302F
:100590001968086219680014486219680120086126
:1005A000196888601968486000217F20FFF74CFFB8
:1005B00040210120FFF748FFBCF1050F18BF10BD17
:1005C00000201968C1F8100310BD734A00B5126805
:1005D0000321D16100284FF000014FF07F0006D0C9
:1005E000FFF732FF032100205DF804EB2CE7FFF753
:1005F0002BFF012100205DF804EB25E7664A00B5DA
:1006000012680321D16100284FF000014FF07F00F4
:1006100006D0FFF719FF012100205DF804EB13E776
:10062000FFF712FF03210020FFF70EFF002108460D
:100630005DF804EB08E7584900B509680320C86174
:1006400000217F20FFF700FF00205DF804EB14E796
:10065000514900B509680320C86100217F20FFF7D8
:10066000F3FE082102205DF804EBEDE64A490A6832
:10067000926C0123096803FA00F010438864704704
:10068000704745490968896D80F001000122801C8E
:1006900002FA00F0084070473F480168496C026860
:1006A00041F4006151640168496C006821F4006103
:1006B00041647047384A012303FA00F000291168A9
:1006C000096C03D0084311680864704721EA0000F0
:1006D000116808647047304900280868C06D0AD066
:1006E0000A6840F00200D0650868C06D096840F0F3
:1006F0001000C86570470A6840F00100D0650868BE
:10070000C06D096840F00800C86570472DE9F043E6
:10071000DFF8849080462025D9F8001009270220B0
:10072000C861002404217F20FFF78EFEA44611E05B
:10073000BCF1030F03D0BCF1060F0BD105E005217E
:100740007F20FFF781FE002404E006217F20FFF7D1
:100750007BFE00240023002D88BF08EB4C1608D92F
:10076000F15C2046FFF770FE601C5B1CC4B29D422A
:10077000F6D80CF1010C6745DAD8D9F80010012041
:10078000C861002404217F20FFF75EFEA446002FED
:100790001CD8BDE8F0830000AC821100E806002000
:1007A000000000209C5D0020BCF1030F03D0BCF1D1
:1007B000060F0BD105E005217F20FFF745FE002441
:1007C00004E006217F20FFF73FFE00240023002DD8
:1007D00088BF08EB4C160AD9F01890F82011204673
:1007E000FFF732FE601C5B1CC4B29D42F4D80CF1D2
:1007F000010C6745D8D8CCE770B5D449044603202E
:100800000968C8610425E9B27F20FFF71DFE0023B7
:10081000E1B2D8B2FFF718FE03F12000E1B2C0B296
:10082000FFF712FE03F14000E1B2C0B2FFF70CFE89
:100830005B1C202BECDB0CF046F8002808BF0024E2
:100840006D1C072DDFDB70BDC04803210268D1613C
:1008500002681121C2F8301300684FF00111C0F88E
:10086000201300217F20EFE5B84B00B51968032065
:10087000C86101467F20FFF7E7FD09210320FFF74C
:10088000E3FD01210F20FFF7DFFD19680120C1F80A
:10089000140319689920C1F8300319686FF0FE201D
:1008A000C1F8200303217F20FFF7CEFDFF210020A8
:1008B000FFF7CAFD03210120FFF7C6FD2121052016
:1008C000FFF7C2FD01217F20FFF7BEFD002175204B
:1008D000FFF7BAFD012176205DF804EBB4E59B4BF0
:1008E00000B519680320C86100217F20FFF7ACFD27
:1008F00040210120FFF7A8FD00210320FFF7A4FD00
:1009000002217F20FFF7A0FD15210220FFF79CFDAB
:1009100089210420FFF798FD0F217F20FFF794FD28
:1009200001210320FFF790FD19680120C1F814038D
:1009300019681120C1F8300319684FF00110C1F88F
:10094000200303217F20FFF77FFD01210020FFF717
:100950007BFD00210120FFF777FD21210520FFF716
:1009600073FD04216D20FFF76FFD08216E20FFF756
:100970006BFD10216F20FFF767FD01217F20FFF73E
:1009800063FD08210020FFF75FFD04210120FFF730
:100990005BFD1868406C196840F400604864186892
:1009A000406C196820F40060486400BD2DE9F047F0
:1009B000664E0546012730680024C0F8147303F022
:1009C00035FF6FF0FE294FF0990A4FF00308022817
:1009D00004D003F02BFF05281DD028E00BF073FF97
:1009E00038B130685A4CC0F820933068C0F830A352
:1009F0001DE03068574CC0F81C8031681120C1F8E8
:100A0000300331684FF00110C1F8200300217F202E
:100A1000FFF71AFD0BE009F0F4F878B330684C4C9E
:100A2000C0F820933068C0F830A3FFF71DFF30688E
:100A3000406C316840F4006048643068406C316854
:100A400020F40060486403F0F1FE034630684FF084
:100A50000431016208143168486230680761306807
:100A600087603068476000217F20FFF7EDFC402160
:100A70000120FFF7E9FC052B09D104E0FFE7354C25
:100A8000FFF72DFFD3E731680020C1F8100330686D
:100A9000C0F81C80DFF8C0C001233CF82300C0F37D
:100AA00007217F20FFF7D0FCE95C1CF82300FFF74B
:100AB000CBFC1CB1E118E85C81F8C0065B1CB3F507
:100AC000A67FEADBBDE8F0877047244B00211A4679
:100AD000E0FB03214809C0EB0010800070470020B4
:100AE000704700207047002070470020704708467C
:100AF000704700207047704700207047704770476C
:100B000000207047704770470020704700207047F2
:100B100000207047002070477047704700207047E2
:100B2000704770477047002070470020704770473B
:100B300070477047002070470020704770470020C2
:100B4000704770477047704770470000AC821100D3
:100B50009C5D0020E2070020000000205BB0055BE8
:100B6000FF4910B509680320C86100217F20FFF705
:100B70006BFC02210020FFF767FC01210220FFF738
:100B800063FC0121BDE810400020FFF75DBCF44983
:100B900010B509680320C86100217F20FFF754FCCD
:100BA00002210020FFF750FC01210220FFF74CFC3E
:100BB0000121BDE810400020FFF746BCE94808B518
:100BC00001684969C1F30721009101684969009AE8
:100BD000C1F307219142F8D0E1480168D1F82C1304
:100BE000006841F00401C0F82C13FFF724FD002831
:100BF00008BF08BD0020BDE80840FFF7FFBCD9488A
:100C000008B501684969C1F3072100910168496984
:100C1000009AC1F307219142F8D0D1480168D1F878
:100C20002C13006841F00401C0F82C13FFF703FDFA
:100C3000002808BF08BD0020BDE80840FFF7DEBC63
:100C400010B503F0F3FD052809D0C5480068D0F8B9
:100C50002C0310F0040F0CBF0120002010BDC2486F
:100C60000068006810BD70B50546FFF7E9FF012870
:100C700018BF70BD03F0DAFDB94C0326052827D054
:100C8000FFF7BDFF012D18BF70BD2068406C2168C3
:100C900040F40060486400BF00BF00BF2068406CA3
:100CA000216820F4006048642068C66100217F202C
:100CB000FFF7CAFB02210020FFF7C6FB012102203B
:100CC000FFF7C2FBBDE8704001210020FFF7BCBB6D
:100CD0000020FFF793FCD8E710B5FFF752FC012086
:100CE000FFF7C1FF102004F008F90121052002F0F0
:100CF0003CFA0121062002F038FA9C490120887054
:100D000010BD10B5602002F086FA602002F076FA7D
:100D1000934903200968C86410BD944A014650797C
:100D2000002818BF0120002918BF01215171704708
:100D30008E4A11691061084670478C480021017184
:100D4000C17001898A4815F0ACBF88480021017143
:100D5000C1700189864815F0A4BF00B583B000209A
:100D60008DF80000ADF8040003F060FD02281CBF00
:100D700003B000BD0BF0A7FD02281CBF03B000BDEF
:100D8000012077490968C86103217F20FFF75CFBD8
:100D900089210520FFF758FB67210620FFF754FB48
:100DA00045210720FFF750FB23210820FFF74CFBCC
:100DB00003B0F12109205DF804EBFFF745BB2DE9F5
:100DC000F14F88B0002004464FF0100B02900090C5
:100DD00003F02CFD022806D003F028FD052808BFEB
:100DE00008F00FFF01E00BF06EFD03F01FFD6149FD
:100DF00005280BD0086890B1012808BF01240ED047
:100E000002280BD0032808BF032408E00868022842
:100E100014BF4FF0360B4FF0000BEBD102245648B5
:100E200056494FF0200900680969406BFF3100F511
:100E3000E03021F0FF01503004FB010512200026B4
:100E4000069001E0032E01D214271AE0F01E0328B9
:100E500038BF152715D3B01F032838BF162710D366
:100E6000A6F10900032838BF24270AD3A6F10C00F5
:100E7000032838BF252704D3A6F10F00032838BF65
:100E800026270298B84209D03548029739090068E8
:100E9000C16107F00F017F20FFF7D6FA0BF013FDB9
:100EA00000280CBF4FF07F084FF048080024B9F12C
:100EB000000F35D9380905903148A0FB06104008CD
:100EC000A0EB800000EB060A2E48A0FB06104008AD
:100ED000404200EBC0008119089800EB41100490DB
:100EE000089800EB461003900598012820D0C4F123
:100EF0001F0000EB4A1080B201900122694628468B
:100F000001F0D0F86D1C03F091FC02284BD050E0AA
:100F1000202C45F10005E7D3601CC4B24C45F7D343
:100F2000701CC6B2069886428CD309B0BDE8F08F1B
:100F300004EB4A1080B2019001226946284601F074
:100F4000B1F86D1C03F072FC022805D100988045B1
:100F500002D880384F281BD203F068FC052813E024
:100F6000AC821100C8821100B0821100300500204F
:100F7000D0100020CC050020A4060020A8060020E8
:100F8000ABAAAAAA398EE33804BF0098FF2801D182
:100F9000CDF800B00098C1B2039801550198C0B2D5
:100FA000FFF752FAB8E70098804502D880384F28FA
:100FB00006D203F03BFC052804BF0098FF2801D1AE
:100FC000CDF800B0049800992044C9B280F82011EF
:100FD0000198C0B2FFF738FA9EE7F749C86070473A
:100FE00010B503F023FC052802D0BDE8104006E64A
:100FF000FFF726FE012818BF10BD0020BDE81040F5
:10100000FFF7FCBA70472DE9F041064682B00C4666
:101010000120FFF728FE03F009FCE84FE64D4FF0F2
:101020000008A4B103F002FC052819D0FFF7E7FD82
:10103000606800281CBF2168002908D0FFF7B6FCB3
:101040003868C0F82883EE60A068FFF7B8FE8DF816
:101050000080ADF8048003F0E9FB022827D107E007
:10106000FFF7EEFD012804BF0020FFF7C7FADFE716
:101070000BF029FC02281AD139680120C86103212C
:101080007F20FFF7E1F989210520FFF7DDF96721CE
:101090000620FFF7D9F945210720FFF7D5F92321CD
:1010A0000820FFF7D1F9F1210920FFF7CDF985F8E4
:1010B000048085F803802989C14815F0F2FDC5F840
:1010C0001080687900206871602002F0A4F8602028
:1010D00002F094F839680320C86402B0BDE8F081DA
:1010E000602002F08FB810B5602002F08BF8BDE8E8
:1010F00010400120B7E5B048C0687047AE4800789E
:10110000002818BF0120704738B500240094FFF76D
:1011100097FD002818BF38BDA7480471C470018925
:10112000A74815F0BEFDDFF894C2DCF80000406C63
:10113000DCF8001040F40060486400BFDCF80000F8
:10114000406CDCF8001020F4006048649D4D9E481F
:10115000297800290168496914BFC9B2C1F3072180
:10116000009120D001684969009AC9B29142F9D032
:1011700000680221C161DCF80000D0F82C03DCF823
:10118000001020F00400C1F82C03DCF80000C0F8C7
:101190001043FFF750FA002818BF38BD0120BDE802
:1011A0003840FFF72BBA01684969009AC1F307215B
:1011B0009142F8D0002301684969C9B200910168E1
:1011C0004969009AC9B29142F9D0591CCBB2042B9B
:1011D000F1D301212970CBE770B503F027FB00257F
:1011E000754C052803D02570BDE870408CE7FFF7EB
:1011F00027FD002818BF70BD2571E5702189704852
:1012000015F04FFD25706D480168D1F82C1300686A
:1012100021F00401C0F82C13BDE870400120FFF755
:10122000EDB9654901200870704770B503F0FEFA0A
:10123000614C0125052808D0FFF702FD002818BFE2
:1012400070BD2570BDE870405EE7FFF7F9FC00282F
:1012500018BF70BD00202071E0702189584815F03A
:1012600020FD2570BDE870400120FFF7C7B90120BF
:10127000F9E470B5504C0025E57003F0D7FA052865
:1012800003D02570BDE870403EE7FFF7D9FC002889
:1012900018BF70BD2571E5702189494815F001FD21
:1012A000257046480168D1F82C13006821F004012C
:1012B000C0F82C13BDE870400120FFF79FB93E4AEB
:1012C00051695061084670473B49886170473A4808
:1012D0008069704738484078704737494870704790
:1012E000012888BF7047394900280868406E04D03B
:1012F000096840F0020048667047096840F0010044
:1013000048667047012888BF704730490028086840
:10131000406E04D0096820F00200486670470968F2
:1013200020F0010048667047002000F0F1BB01206A
:1013300000F0EEBB10B5204CE069401CE0611F4896
:101340000168096D006841F004010165FFF7A4F927
:10135000FFF77EF9207800281CBF0120FFF783FCEF
:101360006069002818BF80471948016841F400618E
:10137000016010BD10B50120FFF775FCBDE81040FD
:1013800000F00DBC13487047134870470A48006AC4
:1013900070470948406A70470748806A70470649A5
:1013A00000200862486288627047054900EBC0006F
:1013B00001EBC0107047000030050020AC82110026
:1013C000D0100020AA050020C8821100A8821100B8
:1013D00064050020A4100020AD10002048434FF603
:1013E000FF7101EA4000FB4908817047FA4A10701A
:1013F00051707047F849085C7047F0B50746A1B0D6
:10140000202401210220FFF755F9F44D00216E46FA
:10141000286830F8110026F81100491CA142F7D3C2
:1014200000210220FFF746F901210020FFF742F9D1
:101430000021002C09D9286806EB410230F8110080
:10144000491CA2F840008C42F5D800210846FFF75D
:1014500031F9A2006946384615F082FB21B0F0BD93
:1014600070B50E46DB490500E0B04FF08000088102
:101470004FF020044FF001010CBF05200420FFF7BE
:1014800019F9D64900206B46096801EB053101EBDB
:10149000800202F58052D2F800C043F820C003EB6E
:1014A000800CD2F88020401CCCF88020A042EED3E3
:1014B000002D4FF0000114BF04200520FFF7FAF8BB
:1014C000E2006946304615F04BFB60B070BD70B568
:1014D0000400C0480E464FF0010105890CBF0520ED
:1014E0000420FFF7E7F8BD482A46006800EB043007
:1014F00000F58051304615F033FB4FF0000124B168
:10150000BDE870400420FFF7D5B8BDE87040052065
:10151000FFF7D0B810B590B02022002100910191C2
:101520000291039104910591069107910891099107
:101530000A910B910C910D910E91EC460F9100EBDD
:10154000410430F81130B4F8404223442CF81130F3
:10155000491CC9B29142F2D35200614615F000FB1A
:1015600010B010BDF0B59B4F9C4EADF2844D0024E1
:101570003D89002C4FF001010CBF05200420FFF72E
:1015800099F830682A4600EB043000F5805168462F
:1015900015F02BFB002C4FF000010CBF05200420A0
:1015A000FFF788F8641C022CE2DB0020FFF7AAFE9C
:1015B0000120FFF7A7FE0DF2844DF0BD884A89494E
:1015C0000020136803EB8003D3F8C03021F81030FB
:1015D000401C0728F5D31068D0F8E4004882704713
:1015E0007F4A814B002818BF00201DD0116801EBF5
:1015F0008001D1F880110904090C18BF23F81010DC
:10160000401C2028F2D30020116801EB8001D1F8A2
:1016100080120904090C1CBF03EB400CACF840100D
:10162000401C2028F0D37047116801EB8001D1F8ED
:1016300000110904090C18BF23F81010401C2028C1
:10164000F2D30020116801EB8001D1F800120904E7
:10165000090C1CBF03EB400CACF84010401C2028C8
:10166000F0D370472DE9F84304460020009003F0C2
:10167000DDF80127574EDFF868815A4D052809D05B
:101680000BF021F90028204650D0FEF7FAFF002881
:1016900059D061E008F0B5FA0228204603D0FEF7E1
:1016A000F0FF68B335E0FEF7ECFF40B984F00104C9
:1016B0002046FEF7E6FF002808BFBDE8F8834B4947
:1016C0002046FFF704FF0020D8F8001001EB80014E
:1016D000D1F8C01025F81010401C0728F4D3D8F812
:1016E0000000D0F8E40068822046FFF779FF20462A
:1016F000FFF708FE377184F00100F070BDE8F88351
:1017000084F001042046FEF7BCFF002808BFBDE8B6
:10171000F88336492046FFF7DAFE2046FFF7F2FD50
:10172000377184F00100F070BDE8F883FEF7A9FF7F
:101730000028EED184F001042046FEF7A2FF002825
:10174000E7D1BDE8F88384F001042046FEF799FF55
:10175000002808BFBDE8F88324492046FFF7B7FEFC
:101760000020D8F8001001EB8001D1F8C01025F856
:101770001010401C0728F4D3B1E770B5154D04468E
:101780006879002804BFE878FFF76CFF2879002803
:1017900008BF70BD154AAB6902F5A060A0F18001D9
:1017A000A0610020C4E9021020616061C4E9003238
:1017B000012070BD07490020087170472DE9F14FE5
:1017C00082B00020009012204FF0200800250190E8
:1017D00010E000003005002036050020D082110006
:1017E000AC821100D015002050150020D010002030
:1017F000032D01D214261AE0E81E032838BF15264F
:1018000015D3A81F032838BF162610D3A5F1090049
:10181000032838BF24260AD3A5F10C00032838BFBB
:10182000252604D3A5F10F00032838BF26260098EB
:10183000B04209D0CC48009631090068C16106F079
:101840000F017F20FEF700FE0024B8F1000F28D919
:1018500002984FEA161B00EB451AC448A0FB05107E
:101860004008A0EB80004719C148A0FB05104008C4
:10187000404200EBC0000299284401EB4019BBF143
:10188000010F16D0C4F11F0000EB471080B2FEF725
:10189000F4FD09EB040181F82001601CC4B2444549
:1018A000EDD3681CC5B201988542A1D303B0BDE851
:1018B000F08F04EB471080B2FEF7DFFD0AF804005A
:1018C000EBE7012070477047002070472DE9704317
:1018D0001C4616460D468046FFF7B2F95FEA00093E
:1018E0001CBF0120FFF7BFF92819A84288BF0121BA
:1018F0000FD900234446B34238BF202C06D201FA48
:1019000004F23A4218BF5B1C641CF4E76D1C85426C
:10191000EFD3B9F1000F08BFBDE87083BDE8704395
:10192000A7E42DE9F047994614460E460746089D60
:10193000FFF786F95FEA00081CBF0120FFF793F963
:1019400003F0D4F8DFF82CC206EB0903B342CCF85D
:10195000000088BF381913D93C460AE0DCF80010B3
:10196000097825F8021BDCF80010491C641CCCF82F
:101970000010844238BF202CF0D3761C9E42EBD35B
:10198000B8F1000F08BFBDE8F087BDE8F04770E48C
:10199000704710B5FFF7B0F87749488110BD764A17
:1019A000C1B200F470635289914288BF11464FF072
:1019B000640C01FB0CF1B1FBF2F11A0A02FB0C11F1
:1019C00089B210F4805F12BF08B2484200B270477B
:1019D0000028B8BF404280B2B4BF00214FF480510C
:1019E00000F470621143644AC0B25289504341EA24
:1019F0001020704708B50921732000F027F9BDF8C1
:101A0000001000F01F0021F0FF010843ADF80000B6
:101A10000D21732000F01AF9BDF8001000F01F002E
:101A200021F47F4141EA0020ADF80000BDF800003C
:101A300008BD7047FFF776B850484FF41071006842
:101A400000F5405015F02DB92DE9F84F1220DFF8C0
:101A500024B100904A484FF020080024CBF8000041
:101A600001E0032C01DA14261AE0E01E032838BF37
:101A7000152615D3A01F032838BF162610D3A4F1AE
:101A80000900032838BF24260AD3A4F10C00032838
:101A900038BF252604D3A4F10F00032838BF26261B
:101AA000B24509D030483109B2460068C16106F03C
:101AB0000F017F20FEF7C8FC0025B8F1000F1EDDE6
:101AC00030484FEA161980FB0410A0EBE070A0EB41
:101AD00080000719B9F1010F0EBF05EB4710C5F1E2
:101AE0001F0000EB4710DBF80020C0B212F8011B0A
:101AF000CBF80020FEF7A8FC6D1C4545EADB0098FA
:101B0000641C8442ADDBBDE8F88F0020FEF7E9BF1E
:101B100070B5044601280AD81B48002C0168496E9C
:101B200014BF41F0020141F0010100684166124D0D
:101B3000A869401CA861296900291CBF2046884764
:101B4000287800281CBF0120FFF78DF80648002CDC
:101B50000CBF02210121006801650C48016841F0B9
:101B60002001016070BD0000AC821100ABAAAAAADE
:101B7000398EE338E005002030050020D0821100C6
:101B80001C62002056555555A8821100640500209E
:101B90000549002814BF00200120087070477047D5
:101BA00070477047704700005C050020704710B513
:101BB00001F017FE234B244900224C6824B14A60EF
:101BC00001F014FE204610BD1878002818BF0A80C6
:101BD000F3D10888B0F57A7F87BF30BF0A80401CF8
:101BE0000880EAE710B501F0FCFD17484468002CB6
:101BF00008BF30BFFAD00021416001F0F7FD204658
:101C000010BD70B501F0EDFD0F4D6C682CB10020DA
:101C1000686001F0EBFD204670BD30BF01F020FB95
:101C20000028F2D001F020FBA860EEE7002070470A
:101C300030BF704772B662B670477047704772B671
:101C400062B670473406002060050020EE4BC208E3
:101C50001B681A6401F0FC0141EA002040F4704066
:101C600040F0804000687047E74BC2081B681A6468
:101C700001F0FC0242EA002040F4704040F0804055
:101C800089070068C90EC840C0B27047DF4900200C
:101C90000870DD490E2009680864DD48007810F0FE
:101CA000800018BF0120704710B44FEAD00CD64B0B
:101CB0001C68C4F840C001F0FC0141EA002040F477
:101CC000704040F0804002601868006C10F4007FA3
:101CD00004BF10BC704700BF1868006C10F4007F90
:101CE000F9D110BC7047DFF820C310B4DCF800C095
:101CF000C308CCF8403001F0FC0343EA002343F46E
:101D0000704343F08043FF24D3F800C08B07DB0E01
:101D10009C402CEA040C9A4010BC42EA0C02C3E737
:101D2000BC484FF4F46102681161016849680268B7
:101D300041F0020151600068032181617047B5489C
:101D400010B502681021116002684FF4F46111614E
:101D500001684968026841F002015160006803218E
:101D60008161072208217120FFF7BDFF0E2001F0DD
:101D70002BFABDE810400E2001F033BAA24910B58D
:101D80000968A5480862072201217020FFF7ABFF10
:101D9000A04810210268116002684FF4F4611161DB
:101DA00001684968026841F002015160006803213E
:101DB0008161072208217120FFF795FF0E2001F0B5
:101DC00003FABDE810400E2001F00BBA9148002143
:101DD0000268116002684FF4E0611161006801213E
:101DE000816170478B4900200A6810600A681061A1
:101DF0000968886170478748062102681160026897
:101E000002215160006881617047824800210268A8
:101E100011600068816170477E4900200968086090
:101E2000704710B57B4C08202168086021680220AB
:101E30008861072208217120FFF755FF2068C068DC
:101E400010F0080FFAD021680F20886010BD10B57F
:101E5000044602460021F020FFF726FF224601211A
:101E6000F020FFF721FF22460021F120FFF71CFFA1
:101E700022460121F120FFF717FF22460021FC2016
:101E8000FFF712FF22460121BDE81040FC200BE7BE
:101E90004FF4807141EAD0025B490B681A645F4AD3
:101EA00042EA002210600868006C10F4007F08BF4E
:101EB000704700BF0868006C10F4007FF9D17047CC
:101EC000514A4FF4807141EAD001126811645349BC
:101ED00041EA00200068704708227020002102E7D4
:101EE000002270201146FEE647480168496E0268EC
:101EF00021F4007151660168496E026841F48071F5
:101F000051660168496E026841F48061516601685A
:101F1000496E006821F480614166002270201146FC
:101F2000E1E639480168496E026841F48061516612
:101F30000168496E026821F4806151660168496E4A
:101F4000026821F4807151660168496E006841F4AD
:101F50000071416670472C480168496E026841F47F
:101F6000806151660168496E006821F480614166B4
:101F7000704725481B21026811640068016470479E
:101F800010B5244C2068C0682549086025484FF6E4
:101F9000FF71006801602068C06810F0100F0BD05E
:101FA00019491B200A681064096808642068806861
:101FB000216840F0100088602068C06810F0080FA9
:101FC00005D020688068216840F00800886020689B
:101FD000C06810F0040F0AD020688068216840F0C3
:101FE00004008860FF2200217020FFF77CFE20683B
:101FF000C06810F0010F08BF10BD2068806821681C
:1020000040F00100886010BDA88211006C0500201E
:1020100000F20040C88211002222A26000F00040BD
:10202000EC06002090821100704770B5FF4D044609
:10203000C0F30741286801F0CEFAC4F307212868ED
:1020400001F0C9FAE1B22868BDE8704001F0C3BAF6
:102050002DE9F041F64F0446164638680D46806A71
:10206000396840F003008862DFF8C0830321D8F8A4
:10207000000001F0B0FA2046FFF7D7FF0024002E41
:1020800007D9D8F8000001F0D4FA2855641CA642FC
:10209000F7D83868806A396820F003008862012028
:1020A000BDE8F08170B514460D46064601F0A3FB6D
:1020B000224629463046BDE87040C9E72DE9F04187
:1020C0000024DC4D042601F096FB324629462046CA
:1020D000FFF7BEFF04242F463D1D264601F08BFB73
:1020E000324629462046FFF7B3FF08242D1D04265B
:1020F00001F081FB324629462046FFF7A9FF202543
:1021000007F10C0401F077FB324621462846FFF721
:102110009FFF0C3724243E1D042501F06CFB2A464A
:1021200031462046FFF794FF2824361D01F063FB5B
:102130002A4631462046FFF78BFFBF4E07F10C04BD
:1021400001F059FB2A4621463046FFF781FF371D33
:1021500025462C1D042601F04EFB3246214638460A
:10216000FFF776FF3E1D0424083501F044FB2246AC
:1021700029463046FFF76CFF4FF4FC342D1D042632
:1021800001F039FB324629462046FFF761FF271D43
:102190002C46251D01F02FFB324629463846FFF715
:1021A00057FFA64F2D1D01F026FB32462946384623
:1021B000FFF74EFF3F1D2D1D01F01DFB3246294646
:1021C0003846FFF745FF2E1D3F1D042501F013FB88
:1021D0002A4631463846FFF73BFF351D3F1D042692
:1021E00001F009FB324629463846FFF731FF3E1D14
:1021F0000425183401F0FFFA2A4621463046FFF73D
:1022000027FF8F4E8F4C012501F0F5FA2A46214613
:102210003046BDE8F0411BE77047F8B50E000546B3
:102220004FF0000417D0042269462846FFF710FF3C
:102230009DF800009DF801109DF8032008409DF8CE
:10224000021011400840FF2801D00020F8BD641C96
:102250002D1DB442E7D30120F8BD2DE9F843914686
:102260000D468046002401F0C6FA0027B9F1000FA0
:1022700088BF6E4619D9042269464046FFF7E8FE3A
:102280000023F05CE95C88421CBF601C84B25B1CCC
:10229000042BF6D32D1D7F1C08F104084F45EAD30B
:1022A000002C1CBF0020BDE8F8830120BDE8F883A6
:1022B0000120704770B55E4C06462068806A216830
:1022C00040F003008862594D0521286801F083F928
:1022D000286801F0AEF92168896A226821F00301BB
:1022E00091623070012070BD38B5514C2068806A11
:1022F00040F00301206881624C4D0521286801F0FF
:102300006AF9286801F095F92168896A226821F044
:10231000030191628DF8000010F0010018BF012048
:1023200038BD10B5424C2068806A216840F0030037
:1023300088623E480621006801F04DF92068806AF5
:10234000216820F003008862012010BD70B50546A9
:10235000FFF7CAFF00281CBF022070BDFFF7E1FF96
:10236000334C2068806A216840F0030088622F485F
:102370002021006801F02FF92846FFF756FE20685B
:10238000806A216820F003008862FFF7ADFF28B162
:1023900000BF00BFFFF7A8FF0028F9D1012070BDE2
:1023A0002DE9F84F8046032701F025FADFF88090E9
:1023B000DFF878A0FFF798FF10BBFFF7B2FFD9F85E
:1023C0000000806AD9F8001040F0030088622021E4
:1023D000DAF8000001F0FFF84046FFF726FED9F8D2
:1023E0000000806AD9F8001020F003008862FFF72F
:1023F0007BFF28B100BF00BFFFF776FF0028F9D1AF
:1024000045464FF480660024042269462846FFF7BB
:102410001FFE9DF800009DF801109DF80320084064
:102420009DF8021011400840FF280DE0C482110001
:10243000A8821100F015002068C0010010F801000A
:10244000043003007005002006D0381EA7F10107F4
:10245000B0DC0220BDE8F88F641C2D1DB442D3D33C
:102460000120BDE8F88F2DE9F04117460E460446DD
:10247000FFF73AFF00281CBF0220BDE8F081FFF7FC
:1024800050FFDFF80C84D8F80000806AD8F80010FC
:1024900040F003008862FF4D0221286801F09BF89C
:1024A0002046FFF7C2FD0024002F06D9315D2868C1
:1024B00001F091F8641CA742F8D8D8F80000806AAF
:1024C000D8F8001020F003008862FFF70DFF28B154
:1024D00000BF00BFFFF708FF0028F9D10120BDE8C9
:1024E000F0812DE9F043C1B08846814603276E464E
:1024F00001F081F94FF4807241464846FFF7B3FF7F
:10250000002445464FF4807269464846FFF7A0FD17
:10251000305D295D884205D07F1EE9D241B002209E
:10252000BDE8F083641CB4F5807FF1D341B0012095
:10253000BDE8F0832DE9F041D74C0646D44FDFF8D3
:1025400054836068C0B00D4650B1D8F8000001F067
:1025500042F86268FF2AB8BF501C1BDA606035E0A1
:1025600001F049F9FFF7DDFE3868806A396840F00C
:10257000030088620221D8F8000001F02CF83046F0
:10258000FFF753FD2946D8F8000001F024F86068F1
:10259000401CE3E7002060603868806A396820F0FA
:1025A0000300886200244FF4807269463046FFF7CA
:1025B0004FFD68462A5D015D914203D040B0022084
:1025C000BDE8F081641CB4F5807FF3D340B00120F6
:1025D000BDE8F08170B50C46054601F00CF9B4F584
:1025E000807F88BF70BDAA490A68926A096842F074
:1025F00003028A62A7480321006800F0ECFF284626
:10260000BDE8704011E5A348006801F012B8A04889
:102610000168896A006821F003018162704770B522
:102620000C46054601F0E7F821462846BDE8704013
:102630004FF480720CE570B5954D04462868806AA9
:10264000296840F003008862924E9F21306800F0B4
:10265000C2FF306800F0EDFF2070306800F0E9FF45
:102660006070306800F0E5FFA0702868806A296813
:1026700020F003008862012070BD70B5044601F0AF
:10268000BAF8834D2868806A296840F003008862A0
:10269000804E9F21306800F09EFF306800F0C9FF37
:1026A0002070306800F0C5FF6070306800F0C1FF36
:1026B000A0702868806A296820F0030088620120E1
:1026C00070BD2DE9F047DFF8C89104461746D9F8E8
:1026D00000008846806AD9F8001040F00300886244
:1026E0006C4D0321286800F076FF2046FFF79DFC23
:1026F0000024B4EB970F18D2286800F09AFF064622
:10270000286800F096FF46EA0026286800F091FF4E
:1027100046EA0046286800F08CFF46EA006048F868
:102720002400641CB4EB970FE6D3D9F80000806A4C
:10273000D9F8001020F0030088620120BDE8F0877E
:1027400070B514460D46064601F055F82246294656
:102750003046BDE87040B4E710B5FFF7C5FD00286E
:102760001CBF022010BDFFF7DCFD494C2068806AC9
:10277000216840F00300886246486021006800F04C
:102780002AFF2068806A216820F003008862FFF732
:10279000ABFD28B100BF00BFFFF7A6FD0028F9D1AF
:1027A000012010BD10B501F026F8FFF79DFD0028AF
:1027B0001CBF022010BDFFF7B4FD354C2068806AB5
:1027C000216840F00300886232486021006800F010
:1027D00002FF2068806A216820F003008862FFF70A
:1027E00083FD28B100BF00BFFFF77EFD0028F9D1AF
:1027F000012010BD70B50C46054600F0FCFF002618
:1028000000F0F9FF4FF4807221462846FFF720FCC4
:10281000761C04F5807405F58075102EF0D3012028
:1028200070BD2DE9F047C0B08846814600F0E3FF57
:102830004FF0000A464603276D4600F0DCFF4FF4D8
:10284000807231464846FFF70EFE00244FF4807236
:1028500069464846FFF7FCFB295D305D814205D0A3
:102860007F1EEAD240B00220BDE8F087641CB4F5B8
:10287000807FF1D30AF1010A08F5807809F58079A3
:10288000BAF1100FD6D340B00120BDE8F0870000A8
:10289000A8821100C4821100700500202DE9F04FBC
:1028A00081B00546ADF5804D000514468846000D03
:1028B000EB4633D02F466FF30B07BA465E4600F067
:1028C0009AFF4FF0000900F096FF4FF480723146F6
:1028D0003846FFF7BDFB09F1010906F5807607F5DB
:1028E0008077B9F1100FEED3C5F30B00C0F5805619
:1028F000A64288BF264658443246414614F030F975
:102900005046FFF74DFD022850D059465046FFF77C
:1029100088FF02284CD03544B044A41BB4F5805F36
:1029200019D34FF480524146584614F019F92846FD
:10293000FFF736FD022839D059462846FFF771FFC8
:10294000022835D0A4F5805405F5805508F5805847
:10295000B4F5805FE5D21CB3D9462E4600F04BFF9C
:10296000002700F048FF4FF4807259463046FFF7C9
:102970006FFB7F1C06F580760BF5807B102FF0D364
:1029800022464146484614F0EBF82846FFF708FD7A
:1029900002280BD049462846FFF743FF022807D0FC
:1029A000012001B00DF5804DBDE8F08F0A20F8E759
:1029B0000B20F6E710B5ADF5806D0446AAB1684668
:1029C00014F0CEF82046FFF7EBFC022802BF0A20E5
:1029D0000DF5806D10BD69462046FFF782FD022887
:1029E00002BF0B200DF5806D10BD01200DF5806D2F
:1029F00010BD70B50646FFF777FC00281CBF02200B
:102A000070BDFFF78EFCB44C2068806A216840F0EE
:102A100003008862B14D0121286800F0DCFD3146D9
:102A2000286800F0D8FD2068806A216820F0030043
:102A30008862FFF759FC28B100BF00BFFFF754FCC4
:102A40000028F9D1012070BDF8B500F0D4FEA24DE8
:102A50002868806A296840F0030088629F4E05213B
:102A6000306800F0B8FD306800F0E3FD2968896A3D
:102A70002A6821F00301916240F040048DF8004083
:102A8000FFF732FC002818BFF8BDFFF74AFC2868A2
:102A9000806A296840F0030088620121306800F0F4
:102AA0009AFD2146306800F096FD2868806A296802
:102AB00020F003008862FFF717FC002808BFF8BD6C
:102AC00000BF00BFFFF710FC0028F9D1F8BD70B5BA
:102AD00005460024FFF708FC40B1AC4201D90020B4
:102AE00070BD641CFFF700FC0028F6D1012070BD0A
:102AF00070B5794C06462068806A216840F0030072
:102B00008862764D0921286800F065FD286800F08C
:102B100090FD2168896A226821F00301916230707A
:102B2000012070BD38B5FFF7DFFB002836D1FFF775
:102B3000F8FB694C2068806A40F0030120688162DC
:102B4000664D2F21286800F046FD2068806A2168C4
:102B500020F003008862FFF7C7FB28B100BF00BF69
:102B6000FFF7C2FB0028F9D12068806A216840F095
:102B7000030088620921286800F02DFD286800F014
:102B800058FD2168896A226821F0030191628DF85D
:102B9000000010F0020F1CBF012038BD022038BD1C
:102BA0004E4810B50421006800F015FD012010BD4D
:102BB00070B5FFF799FB00281CBF022070BD464C82
:102BC0002068806A216840F003008862434D052137
:102BD000286800F000FD286800F02BFD06462068FC
:102BE000806A216820F0030088622068806A21687A
:102BF00040F003008862FFF794FB0121286800F091
:102C0000EAFC26F04001286800F0E5FC2068806AB4
:102C1000216820F003008862012070BD70B5054670
:102C2000FFF762FB00281CBF022070BDFFF779FB95
:102C3000294C2068806A216840F003008862274898
:102C40005221006800F0C7FC2846FFF7EEF9206823
:102C5000806A216820F003008862FFF745FB28B1F5
:102C600000BF00BFFFF740FB0028F9D1012070BD75
:102C700010B50446FFF738FB00281CBF022010BD2A
:102C8000FFF74FFB1548D821006800F0A4FC204650
:102C9000FFF7CBF910480168896A006821F0030149
:102CA0008162FFF721FB28B100BF00BFFFF71CFBCB
:102CB0000028F9D1012010BD084810B5B9210068DD
:102CC00000F089FC012010BD044810B5AB2100685C
:102CD00000F081FC012010BDA8821100C482110007
:102CE000012101FA00F041490A6810430860404997
:102CF000096808607047012101FA00F03B490A6841
:102D000022EA000008603A490968086070473749BC
:102D1000096821FA00F000F001007047334A116899
:102D200021FA00F313F0010F4FF0010303FA00F052
:102D30002F4B05D021EA0000106019680860704729
:102D400008431060196808607047294909680968D4
:102D500021FA00F000F00100704725490A68526826
:102D60000123096803FA00F01043486070472049C6
:102D70000A6852680123096803FA00F022EA000099
:102D8000486070471A490A68126A0123096803FA01
:102D900000F010430862704715490A68126A01235F
:102DA000096803FA00F022EA00000862704710493F
:102DB000086840680A6840F0010050600868406890
:102DC0000A6840F002005060084A106840F00100B4
:102DD00010600B681860106840F00200106009680D
:102DE0000860044900200968C86070477805002021
:102DF000A0821100A882110070477047B24810B538
:102E000002683F21D1600268002191640068C0F827
:102E1000B41003210A2000F0A8F9BDE810400A20F0
:102E200000F0C7B9A84A136818601368596048438E
:102E3000116888607047A44A136818601368596065
:102E4000484310F0010F18BF401C1168886070479C
:102E50009D490968C1F8B40070479B4918B10968D9
:102E6000012088647047096800208864704796488C
:102E70000168C968006841F00201C1607047DFF86D
:102E800048C210B4DCF800402062DCF80000416267
:102E9000DCF800008262DCF80000C362DCF800109D
:102EA00001200863DCF80000406B10F0010F09D02E
:102EB00000BF00BF00BF00BFDCF80000406B10F097
:102EC000010FF5D110F0020018BF4FF0FF3010BC19
:102ED00070477D480168C968006821F00201C1603F
:102EE000704779480168C968006841F00101C16014
:102EF0007047754BD3F800C0CCF8200018684162C9
:102F0000186882621968012008641868406C10F023
:102F1000010F08D000BF00BF00BF00BF1868406CA1
:102F200010F0010FF6D110F0060018BF4FF0FF307F
:102F3000704765480168C968006821F00101C160F7
:102F4000704761480168C968006841F00401C160C8
:102F50007047027C017B02F03F0241EA02415A4A7B
:102F6000136899651368016859621368416899622A
:102F700013688168D9621368012119651168496D68
:102F800011F0010F08D000BF00BF00BF00BF1168E3
:102F9000496D11F0010FF6D11368DB6D8382136860
:102FA000DB6D1B0CC38213681B6E038313681B6EDF
:102FB0001B0C438313685B6E83831268526EC2F3EB
:102FC0000E42C28311F0020018BF4FF0FF3070476D
:102FD0003D480168C968006821F00401C16070477C
:102FE00001684FEA314238490B68C3F89C200A68EF
:102FF0004068C2F8A0000868C068096840F0200076
:10300000C8607047304A13681862106841621168DE
:103010000120C1F890001068D0F8980010F0010F5E
:1030200009D000BF00BF00BF00BF1068D0F89800F3
:1030300010F0010FF5D110F0060018BF4FF0FF306F
:10304000704721480168C968006821F02001C1600B
:1030500070471D480168C968006841F01001C160EF
:103060007047A3F1050C184B10B41C68C4F888C055
:10307000D3F800C0CCF8200018684262186881625A
:1030800019680120C1F880001868D0F8840010F099
:10309000010F09D000BF00BF00BF00BF1868D0F803
:1030A000840010F0010FF5D110F0060018BF4FF0AA
:1030B000FF3010BC704704480168C968006821F0FF
:1030C0001001C16070470000B4821100234810B5A0
:1030D000026801211166026810215167026841F2FD
:1030E0000601516602680021916602680A21C2F851
:1030F000881002689021C2F884100168D1F8841009
:10310000026841F00101C2F8841002684FF4817135
:10311000116600680166032000F04BF800210320CF
:1031200000F023F80E49022009688862002010BDD3
:1031300010B5032000F048F808484FF48071026889
:103140001166026800211166006810218167002065
:1031500010BD04490020087070470000A4821100CF
:10316000B08211007C050020704700F00303DA00F4
:103170004FF0FF0C0CFA02F24FF0050C0CEBC303FE
:10318000994000F00C03002808DA30480068184421
:103190004369114093431943416170472C480068CB
:1031A0001844D0F80033114093431943C0F800137A
:1031B000704700F01F01012202FA01F1244A400980
:1031C000126842F82010704700F01F01012202FA35
:1031D00001F11F4A4009126802EB8000C0F880101C
:1031E000704700F01F01012202FA01F1184A40095C
:1031F000126802EB8000C0F880117047144909681A
:103200000860704712490968C1F88000704710488B
:103210000068006870470E490968C1F8800170476E
:103220000A4800688068704708490A689268096817
:10323000886010467047054A1268926800F11003D2
:1032400052F8230042F823107047000094821100C6
:103250009082110070477047704770477047704701
:10326000002070470020704700207047704770476B
:103270001B4A11681060084670477047184840683C
:10328000704710B500F0ACF8164804210268C2F887
:10329000881002684FF6FF71C2F88C1072B6006891
:1032A0004FF40071016662B610BD72B60D484FF45E
:1032B00000310268116662B60068D0F8040268B195
:1032C0004FF6FF71081A0649074A8860A0F50840C2
:1032D000B93890423CBF4FF00110C86000F085B88B
:1032E00080050020B8821100372B1A001A480168A7
:1032F0004969026841F40071516101680969026815
:1033000021F00601116101680969006841F01001AE
:1033100001617047104801680969026821F00601DF
:10332000116101680969026841F0040111610168D5
:103330000969006841F01001016170470649096898
:1033400088607047BFF34F8F034904480968C8601D
:10335000BFF34F8FFEE70000948211000400FA05CE
:10336000022824BF00207047874B53F8202043F8E1
:1033700020101046704770B5844C2068006F824D55
:1033800010F0010F06D021680120C86628680028C7
:1033900018BF80472068006F10F0020F08BF70BD93
:1033A00002202168C8666868002808BF70BDBDE8B3
:1033B00070400047754810B5026802211165036826
:1033C00001221A6603680322DA6600684165092053
:1033D000FFF7EFFE0221BDE810400920FFF7C5BE50
:1033E0006A4902200968086570476849022009682F
:1033F000486570470020704764480168096F11F400
:10340000007F04D000684FF4407101667047006887
:103410004FF480710166704710B55C4C2068C06F36
:1034200010F0020F4FF0010018BF03202268506710
:103430000520B1FBF0F022684FF405710009C2F8D5
:10344000801014F0F7F8524A524B14F043F914F07C
:10345000ADF82168C1F884002068006F10F4007F87
:1034600004D021684FF44070086610BD21684FF405
:103470008070086610BD45480168096F11F4807FAF
:1034800004D000684FF440710166704700684FF443
:103490000071016670473D4B30B41A68D26F12F06C
:1034A000010F1DBF0322D3F800C0CCF874204FF0E9
:1034B000020C04BF1A68C2F874C04FF0020C00EB93
:1034C0004005C5EBC0104FF49674C1EBC0004C43EF
:1034D00000EB8000304904EB4010A1FB0010C00855
:1034E0000521B0FBF1F00022B0F5803F05D3511C5F
:1034F0004008CAB2B0F5803FF9D242EA0C211A68FE
:1035000041F01001C2F888101968C1F88C001868E1
:10351000006F10F4807F05D019684FF44070086682
:1035200030BC704719684FF40070086630BC7047B3
:1035300016480168096F11F4003F04D000684FF489
:1035400040310166704700684FF480310166704772
:103550000E480168096F11F4803F04D000684FF4F1
:1035600040310166704700684FF4003101667047D2
:1035700006480068006FC0F30020704703480068E9
:10358000006FC0F34020704794050020B8821100FE
:103590007B14AE47E17A843FCDCCCCCC30B400254F
:1035A000DDE9024C056001F00F0141EA8C11016078
:1035B0000168D2B241EA0221016023F47F41016136
:1035C00010214160416804F0040211436FF3CF11F0
:1035D000416030BC7047C26812F0010F18BF8160B3
:1035E000C16811F0100FFBD1C16811F0040F08BFC2
:1035F00070478168C16811F0040FFAD17047002349
:10360000002A0BDD11F803C0C0F808C0D0F80CC0C8
:103610001CF0100FFAD15B1C9342F3DBC16811F070
:10362000040F08BF70478168C16811F0040FFAD118
:103630007047FF22C16811F0100FFBD18260C16892
:1036400011F0100FFBD1C16811F0040FFBD080689E
:10365000C0B270470023002AD8BF704710B4FF24BF
:10366000D0F80CC01CF0100FFAD18460D0F80CC058
:103670001CF0100FFAD1D0F80CC01CF0040FFAD0D7
:10368000D0F808C001F803C05B1C9A42E7DC10BC0C
:103690007047416841F002016FF3CF1141607047FC
:1036A000416821F4C17121F47E41416070470000FE
:1036B000704702480068406870477047A882110050
:1036C000264900200A68906009680860244948601B
:1036D000704710B5214C216848602168002088603F
:1036E0000221401EFFF741FD21680720086010BD40
:1036F0001A49002009680860704719490870704726
:103700001748007870471649012008707047144820
:10371000806870472DE9F041114C0027054667800D
:10372000A0684FF47A71B0FBF1F00C4E401E316886
:103730004860306887600221C81EFFF716FD3168B7
:10374000072008606188A942FCD330680760BDE8A3
:10375000F081044948430249886070478C82110017
:103760009C05002040420F00704770B52C4C054668
:103770004FF40D502168886621680320C8662168CF
:103780002848486621684CF271000866216826487E
:10379000C1F88000216842F246308866022100208C
:1037A000FFF7E3FC0020FFF704FD002D08BF70BD0C
:1037B0002068806E42F2413108432168886670BDFE
:1037C000174810B502680121916700684FF40D5148
:1037D00081660020FFF7F8FCBDE810400020FFF7ED
:1037E00000BD0F4901200968486770470C49012056
:1037F0000968886770470A494CF2710009680866D1
:103800007047074881B04CF2710102681166016887
:10381000096F0268D1660068006F009001B07047C0
:103820009C82110007383937009C1C9110B500218B
:103830000A20FEF745FB8B49887110BD02467020B7
:103840000121FEF750BA024670200021FEF74BBA64
:103850002DE9F0410024254672201421FEF7F6F9E7
:10386000064610F0010F18BF012416F0020F18BF12
:1038700044F0020416F0040F18BF44F0040416F0DC
:10388000080F0DD0784844F008040168D1F82C13D3
:10389000006841F00401C0F82C130020FCF7AEFED4
:1038A00016F0100F18BF44F0100416F0200F6D4FE3
:1038B00006D044F0200400210A20FEF701FBB87175
:1038C00024B1702001212246FEF70DFA300A10F0D3
:1038D000010F18BF1025040A14F0010F4FF0010664
:1038E00007D045F020053E7000210A20FEF7E8FAD7
:1038F000B871200A10F0010F1CBF45F040057E7022
:1039000025B1702000212A46FEF7EDF9B8799C28F0
:103910001CBF0020B870BDE8F08199E710B5002108
:103920000A20FEF7CDFAC0B200224E499C2804BFFF
:10393000CA700A7008D0C878401CC0B2C87003288A
:1039400082BFCA70012010BD002010BD10B5454CCB
:103950006079401CC0B26071142818D900210A2077
:10396000FEF7AEFAA279C0B20021824204BF2171F3
:1039700061710CD06079401E60712079401CC0B22A
:103980002071032803D921716171012010BD00202D
:1039900010BD10B5C9200021FEF758F9002010BD58
:1039A00070B57424002133222046FEF79CF90121D2
:1039B0000D462A462046FEF796F902212A46204661
:1039C000FEF791F903212A462046FEF78CF9702074
:1039D00001217722FEF787F90C20FFF7EAFB00218F
:1039E0000C20FFF7C2FBC82000211422FEF77BF950
:1039F0001C4C00200146A0700A20FEF761FAA0715D
:103A000070BD70B5FFF7A2FF20B10020FFF773F97A
:103A1000FEF787FA134C00252078B0B100210A2068
:103A2000FEF74EFAC0B29C2804BFE57025700CD09A
:103A3000E078401CC0B2E070032806D9E57025701C
:103A40000020FFF758F9FEF76CFA6078002808BFED
:103A500070BD65700020FFF74EF9BDE87040FEF7BD
:103A600060BA0000A8050020AC82110070B5FE4CC1
:103A700000254FF4906125706570FC4813F011F932
:103A80004FF49061FA4813F00CF94FF49061F94843
:103A900013F007F96560A5708021F74813F001F96C
:103AA000BDE870408021F54813F0FBB8EE488078FF
:103AB000002818BF01207047EB484078002818BF45
:103AC0000120704770B50546ED48EE490078097849
:103AD00000FB01F4FFF7A6F9E64A2B46A2F51061B8
:103AE0000846FFF7CCF962002946E24813F038F89F
:103AF000DD490120487070BD2DE9F0411D46164694
:103B00000F468046069C00F091FE022802D108F084
:103B1000DAFE30B100F08AFE052803D106F071F814
:103B200000B90224FFF768F921462846FFF783F918
:103B30003A4631464046FFF7DCF9BDE8F041FFF771
:103B40005CB9C94840687047CF4A10B51278014641
:103B50009200C94813F004F8C3490120887010BDD1
:103B60002DE9F04FDFF800A3002689B09AF8018014
:103B70009AF80270B346FDF7F5FCC4480168496C39
:103B8000026841F40061516400BF0168496C00683B
:103B900021F400614164BE490220096808660020E2
:103BA000FDF7BBF8FDF718FB05F01FFA01280BD055
:103BB0006846FDF7E2FD0028F6D0684605F03FFEB6
:103BC000029870B11FB10CE04FF0010B69E00146A3
:103BD000AD4800788200A84812F0C2FF01208AF8A0
:103BE00002000198002854D0B8F1000F51D10446CA
:103BF0009AF80000A8BBDAF8045095B3A048007802
:103C00000790A04890F8009000F010FE022802D122
:103C100008F059FE30B100F009FE052804D105F086
:103C2000F0FF08B94FF00209FFF7E6F84946079898
:103C3000FFF701F921462A460846FFF75AF9FFF730
:103C4000DCF8DFF8509299F80000022804BF2846FB
:103C500005F08CFC99F80000092804BF204605F007
:103C600085FC2546864887490078097800FB01F4E1
:103C7000FFF7D8F87F4A2B46A2F510610846FFF7F8
:103C8000FEF8620029467B4812F06AFF01208AF89C
:103C90000100FDF78FFD761C042E85D3BBF1000FCC
:103CA00003D08AF801808AF802700120FCF7DBFF5C
:103CB000774802210068016609B05846BDE8F08FD8
:103CC0006948002101704BE738B50F2100F07AFEFA
:103CD000654C012806D100202070FFF741FF0090BD
:103CE00000F0F5FE607800281BBFA07800280020B7
:103CF000012038BD0F2138B500F064FE5A4C012870
:103D000006D100202070FFF72BFF009000F0DFFEAF
:103D1000607800281BBFA07800280020012038BD53
:103D20000021514841708170704750487047504899
:103D3000704770B505464FF490614C4812F0B1FFE2
:103D40004FF490614B4812F0ACFF474C294647486E
:103D5000227800F025FB22782946BDE870404548CE
:103D600000F01EBBF0B4464A404B002114788C464C
:103D700003F510650022002C13D933F9116030F9D6
:103D80001170BE4253F81160B4BFB61CB61E43F8A2
:103D9000116033F9116045F81160491C521CA242B0
:103DA000EBD30CF1010CBCF1020FE3D3F0BC704774
:103DB000002818BF01202C49487070472DE9F047B2
:103DC000DFF8A49082B05FEA00087BD000254FF4B2
:103DD000107A2C4600F02AFD052808BF012505D0E1
:103DE00008F071FD00280CBF2B4C2C4C2C482D4F9B
:103DF00000687969806BFF3100F5E03021F0FF0148
:103E0000503005FB010600F011FD022807D108F033
:103E10005AFD20B97869FF3020F0FF00064400F019
:103E200005FD022802D108F04EFDE8B300F0FEFCCB
:103E3000052802D105F0E5FEB0B30025771C304619
:103E400001226946FEF72EF97E1C012201A938469F
:103E5000FEF728F90198C1B2009861F31F2000B263
:103E6000414628F8150021E0B00500203416002056
:103E7000B41A0020341F0020B42C0020342D002060
:103E8000BE050020BF050020C5050020AC82110042
:103E9000A882110031060020E20700209C5D00206E
:103EA000A4060020A806002011E00BE0002C18BF9B
:103EB00024F815006D1C5545C0D30122FD4800F0C3
:103EC0006FFAFC48C9F8040002B0BDE8F08740234F
:103ED00000208446614628F810C0002C18BF24F842
:103EE0001010401C9842F5D301224146F24800F0E0
:103EF00057FAF148E6E710B50122F049ED4800F025
:103F00004FFAEF49EB48486010BD10B5EC4C002863
:103F100004BF606010BD01220146E64800F040FA8F
:103F2000E448606010BDE7487047002818BF0120D2
:103F3000E34988707047E249002200284A708A707D
:103F400018BF012008700BE610B54FF44C30142256
:103F5000DD49FEF7A7F8DC4810BD10B54FF44C3032
:103F60001422D949FEF79EF8D748006810BD10B555
:103F70004FF44C301422D449FEF794F8D24810BDC7
:103F80000268B2F1FF3F15D0052904BFC07A70471F
:103F900028DC012904BF00797047022904BF007A98
:103FA0007047032904BF407A7047042904BF807A10
:103FB000704727E0052913D007DC012922D0022908
:103FC0001CBF032904290BD01CE0142912BF15299A
:103FD0002D207047162904BF28207047172911D1BA
:103FE00000207047142904BF007B7047152904BFC7
:103FF000407B7047162904BF807B7047172904BF98
:10400000C07B7047FF20704770B5C0B000244FF4EC
:104010008071684612F045FEFF224FF44C36511C69
:10402000684612F014FEFF21254661F307052D2294
:10403000214662F3070162F30F2128224BF6BB30C1
:1040400062F3174164F31F61CDE90005CDE9024138
:1040500004943046FEF72CF969463046FEF741FAE3
:1040600040B070BD2DE9F04FC1B00446DDE94A987B
:1040700096489A4693460D4601602068B0F1FF3F8E
:1040800008BFFFF7C1FFD4E901106BF307006AF323
:104090000F20266869F31740D4E9037465F307011C
:1040A00068F31F600D468046FF22511C684612F0DF
:1040B000CEFDCDF80880CDE90374CDE900654FF45D
:1040C0004C342046FEF76CF969462046FEF709FAA3
:1040D000012818BF002041B0BDE8F08F2DE9F04F56
:1040E000174688468146C1B000244FF44C30142254
:1040F0007549FDF7D7FF744B1D68B5F1FF3F02BF4F
:10410000204641B0BDE8F08FFF22D3E902A4511C44
:104110006846D3F810B05E6812F099FD69F30704A1
:1041200068F30F2467F31744012060F31F64CDE99F
:1041300002A4CDE900564FF44C34CDF810B020461F
:10414000FEF72EF969462046FEF7CBF941B0BDE8EF
:10415000F08F2DE9F04F5E4F0024C1B07E42A146A2
:104160004FF44C3014225849FDF79CFF564D17214F
:1041700028462B68FFF704FF844614212846FFF7E2
:10418000FFFE40B2B3F1FF3F04D0BCF1000F09D1F4
:104190002D2807D0FFF738FF4FF44C3014224A493E
:1041A000FDF780FF14212846FFF7EAFE40B2039096
:1041B00015212846FFF7E4FE40B20290162128465A
:1041C000FFF7DEFE40B2019016212846FFF7D8FE29
:1041D000404240B20090FCF78EFF10F0020F68D012
:1041E0003C483E4A4FF0000890F800C03A4800783A
:1041F0000028C8BFACF1010A1EDD0021BAF1000F92
:1042000016DD01F1010B01FB00830BFB008B32F883
:10421000133032F81BB0A3EB0B031BB2002BB8BF5B
:104220005B421BB24B45C8BF9946491C5145E8DB70
:1042300008F101088045E0DB02994945B8BF44F028
:1042400002044FF00008C246BCF1000FC8BFA0F145
:10425000010B1BDD0021BBF1000F13DD0AFB001376
:1042600032F813E002EB43035B88AEEB03031BB2AF
:10427000002BB8BF5B421BB24345C8BF9846491CE0
:104280005945EBDB0AF1010AE245E3DB03994145BD
:10429000B8BF44F004044FF0000ABCF1000F2BDD5E
:1042A0000023002824DD0AFB003132F91110B94245
:1042B00016E029E0B4230020342800209C5D002073
:1042C000B0050020B42C0020B42D00207005002083
:1042D000F1D8FFFFBF050020BE05002034160020E6
:1042E000C8BF0F46B142B8BF0E465B1C8342DADB43
:1042F0000AF1010AE245D3DB0198B84202DB0098DB
:10430000B04201DD44F0080409F0FF004090704223
:10431000C6B2344808F0FF08FFB204602868B0F164
:10432000FF3F08BFFFF770FED5E9020A409968F326
:10433000070061F30F20D5E9009B67F3174066F390
:104340001F600646FF222D6964F3070B511C684667
:1043500012F07DFCCDF80090CDE903A5CDE901B6C2
:104360004FF44C352846FEF71BF869462846FEF701
:10437000B8F81D208DF8000041208DF801000020C4
:104380008DF802408DF804008DF803008DF80500CB
:1043900006226946072007F0CDFE41B0BDE8F08F48
:1043A0002DE9F041074610480E4604780F4805787D
:1043B00000F03CFA022802D108F085FA78B100F04A
:1043C00035FA052802D105F01CFC40B104FB05F0CC
:1043D000420031463846BDE8F04112F0C1BB6000F2
:1043E000F6E7000070050020BE050020BF05002094
:1043F0002DE9FF4FADF2AC4D07463220CDF8A004B9
:104400004042CDF89C040020CDF898040646CDF833
:10441000940483468246CDF88804CDF89004CDF804
:104420008404F8484FF00008444690F80090F6489D
:104430000078CDF88C0400F0F9F9052807BF1E2597
:10444000684214256842CDF8A404FFF76EFCCDF84D
:104450008004DDF88C040023002840F3DE80002275
:10446000B9F1000F7ADD03FB092080B237F9101093
:10447000A94206DDDDF89814491C09B2CDF898145C
:1044800009E0DDF89CC4614505DADDF89414491CA7
:1044900009B2CDF89414DDF8B41431F91010A94222
:1044A00007DD06F1010C0FFA8CF64145C8BF8846BE
:1044B00012E0DDF8A4C48C450EDD0AF1010C0FFA00
:1044C0008CFA8C42C8BF0C46DDF89CC46145BCBF69
:1044D0000BF1010C0FFA8CFB0029B4BFC1F1000CE9
:1044E0008C46DDF8A0E4F44507DDDDF888C40CF166
:1044F000010C0FFA8CFCCDF888C4DDF880C43CF8C0
:1045000010C0ACEB0101DFF804C309B23CF810C0E5
:10451000ACEB010C2DF810C037F910C05FEA0C0E9F
:104520001DD50029B8BF4942DDF880C43CF910C050
:10453000BCF1000FB8BFCCF1000C8C450FDA1EF1B6
:104540001E0F04DADDF8B8C40221ACF80010DDF863
:10455000B01437F810C021F810C006E021E0DDF8F3
:10456000B0144FF0000C21F810C03DF91000A84223
:1045700005DDDDF89014491C09B2CDF8901400282F
:10458000B8BF4042DDF8A014884205DDDDF88404A0
:10459000401C00B2CDF88404501C02B24A45FFF61C
:1045A00062AF581C03B2DDF88C0498423FF757AF56
:1045B0005645B8BFB8F1960F0CDA04F19500B0F586
:1045C000957F07D8002CB4BF604220464045C8BF45
:1045D000002614DC5645B8BFB8F1500F0FDA04F1CD
:1045E0004F009E280BD88A494878401CC0B24870BA
:1045F000C82835D9C82048700020087030E0DDF8A0
:104600009814012029B186B18148007801282CD066
:1046100040E0DDF8941400290ADC7D494878401C0C
:10462000C0B24870C8281BD9E4E7BBF1000F10DD09
:10463000774900224A7008704FF490627348DDF8A1
:10464000801412F08DFA0DF2BC4D4FF0FF30BDE832
:10465000F08F6F494878401CC0B24870C828C9D84C
:1046600000200DF2BC4DBDE8F08FDDF88814DDF8B8
:10467000840488420EDA4A4669463846DDF88C34AE
:1046800005F0A5FEDDF89004002804BF0DF2BC4D36
:10469000BDE8F08F0120E4E72DE9F05FDFF874A1B9
:1046A00080460026DAF80000374690F824110029E9
:1046B0001CBFB0F8300100286CD0FCF708FEDAF817
:1046C000001091F82411B0FBF1F201FB1200002858
:1046D00060D101F073FC5FEA00095BD04E480078BE
:1046E000102804BF484604F041FF46484FF0000C34
:1046F000444690F800B04448634690F800E0BEF1AC
:10470000000F19DD34F9020B0125BBF1010F10DD9B
:1047100034F9022B101A01B20029B8BF494208B27D
:10472000604502DD84461E462F466D1C10465D45E1
:10473000EEDB5B1C7345E5DBDAF80020B2F83001F4
:10474000844527DB06FB0B7008EB400338F810109C
:1047500033F8023CC91A39F8103009EB400009B2AD
:1047600030F8020C181A081A00B20028B4BF4342ED
:1047700003460029B8BF49428B420BDA0028B8BF74
:104780004042B2F83211884204DA01F021FC0020E4
:10479000BDE8F09F0120BDE8F09F70B515460E46BC
:1047A000044608F090F8002C18BF70BD042818BF0C
:1047B000052806D01748006890F82400A84288BF52
:1047C00070BD3046BDE87040FFF7BEB970B5154604
:1047D000044608F078F8B4F1FF3F0AD0002C18BF67
:1047E00070BD002D08BF70BD2846BDE87040FFF7C2
:1047F00069B9002D08BF70BD2846BDE87040FFF7BD
:1048000098BA0000BE050020BF050020B42E00208D
:10481000B8050020E80600203106002010B506F09B
:10482000C9FA06F063FB002010BD0000AC48007818
:104830007047AB480078022805D005281CBF00202F
:10484000704705F0DEB908F03EB8A549087070471A
:1048500010B50446072C28BF10BDDFE804F0130490
:104860000810130C0800084600F042F90AE0084658
:1048700008F01EF806E0084605F0B8F902E0084620
:1048800007F0C8FC9648047010BD964900200968DE
:10489000B1F8641011F4807F08BF7047FDF787B945
:1048A000904900200968B1F8641011F4807F08BFB6
:1048B0007047FDF797B98B4900200968B1F864107B
:1048C00011F4806F08BF7047FDF7B0B9844948788C
:1048D00000281CBF401E4870704710B572B6FEF726
:1048E0006FFFBDE81040FEF72DBD10B57E48FDF707
:1048F000DFFC72B6FEF764FFBDE81040FEF722BD94
:104900007748006970477648C068704774494861C5
:10491000704773484069704710B5FCF761FBFBF7BF
:10492000E9FDFCF7EEF9FFF7E6FABDE81040FDF708
:104930008BB810B5FCF754FBFBF7DCFDFBF794FFDD
:10494000FCF7DFF9BDE81040FDF77EB830B5ADF2F9
:10495000844D05464FF49061684612F0A2F9604C10
:104960002846256106F042F9E060F0B10278A270B5
:104970004178E17083782371531C03F0FE03637167
:104980000023E37123724FF0120C84F806C004F187
:104990000A0C8CF800308CF80130007860721046F8
:1049A000FCF71CFD0DF2844D30BD4E480068B0F898
:1049B000640010F4807F18BFFDF714F900200DF299
:1049C000844D30BDF0B5ADF2CC4D0F4604464FF4EA
:1049D0009061684612F065F9414D20462C6106F061
:1049E00005F9E860002851D00278AA7041780446A1
:1049F000E97080782871501C00F0FE00687100207A
:104A0000E87128721223AB7105F10A03187058700F
:104A1000207868721046FCF7E1FC0DF590612046A5
:104A200006F001F9608A6E6900281CBF7043060B0E
:104A3000002017F0040F18BF062017F0080F18BF4A
:104A400040F00200616A0840DDF88014CDF8C0141F
:104A5000DDF89C14CDF8C414DDF89014CDF8C8141A
:104A60000DF59861FCF7CFFADDF88C0420B13346E0
:104A7000EA78A97805F0B4FB6421304605F063FCC0
:104A8000287802280FD0052810D016E015480068B5
:104A9000B0F8640010F4807F18BFFDF7A3F8002081
:104AA0000DF2CC4DF0BD07F00EFF01E005F0A9F8C6
:104AB000022808BFDDF8940400D06846FFF77EF9AD
:104AC000002001F07AFA0DF2CC4D0120F0BD10B5B6
:104AD000FCF709FB02490020C860012010BD00005E
:104AE000BC050020E806002000FE1100F9487047D0
:104AF000F94948707047F84840787047F74810B453
:104B0000F74A0168914218D14168B1F5887F14D8FD
:104B10000022D0F808C003461146B2EB9C0F24BF18
:104B200010BC704753F82140491C2244B1EB9C0F44
:104B3000F8D3002A04BF10BC7047002010BC704797
:104B40004FF4FC30FDF72CBC2DE9F0410446E3485E
:104B50000E46E34F0168B94213D14168B1F5887F31
:104B60000FD80023D0F808C001461A46B3EB9C0FBB
:104B700008D251F82250521C2B44B2EB9C0FF8D3B0
:104B800003B10020002558B1B0E80E10A4E80E10C3
:104B9000B0E80E10A4E80E100FC884E80F0016E06D
:104BA000FF223021204612F052F84FF48870C4E9F9
:104BB00000703020C4E90205AA20C4E904054FF0C2
:104BC000FF30E062A062A5616062C4E9075066B987
:104BD0004FF4FC30FDF7E4FBC2480560456085609A
:104BE000C560056145618561C5610120BDE8F08151
:104BF000B949012048707047B749002008707047D4
:104C000070B5ADF5107D0446FFF77DFE054614F046
:104C1000020F04BF0DF5107D70BD0426FFF709FEDD
:104C2000002818BFB04C08D095F92C102246304609
:104C300006F01EF80DF5107D70BD6C462046FCF7A1
:104C4000BDFDF1E770B50D4606461024FFF75BFE8B
:104C500016F0020F18BF05242A46102C28BF70BD7D
:104C6000002A08BF70BD204490F928102046BDE8F6
:104C7000704005F0FDBF2DE9F04F87B0814612204E
:104C800000244FF0200A27460090FFF7CFFD0228AE
:104C900002D107F018FE30B1FFF7C8FD052804D196
:104CA00004F0AFFF08B9022000900098002500280A
:104CB0009CBF07B0BDE8F08F0026BAF1000F7CD989
:104CC0008A4A681EA2FB00314908A1EB8101084411
:104CD0000590E81E0490A81F0390C01E0290C01EFD
:104CE0000190A2FB05104008A0EB8000A5F10F0B7E
:104CF00000EB0508FFF79AFD022803D107F0E3FD5A
:104D000000283AD0FFF792FD052803D104F079FF7F
:104D1000002832D0032D38BF142417D30498032859
:104D200038BF152412D30398032838BF16240DD397
:104D30000298032838BF242408D30198032838BFD9
:104D4000252403D3BBF1030F38BF2624A7420AD082
:104D50006748C4F3031127460068C16104F00F01DE
:104D60007F20FBF771FBC4F3031001281CBFC6F1C1
:104D70001F0000EB481018D127E0002D0CBF1424B1
:104D80002424A74209D05A48210927460068C16156
:104D900004F00F017F20FBF757FB2009012814D0F6
:104DA0000598C6F11F0101EB401019F8011BC0B2B4
:104DB000FBF74AFB761C56459CD300986D1C854238
:104DC000FFF47AAF07B0BDE8F08F06EB4810ECE7D0
:104DD0002DE9F84F834640484FF0000A0C46B0F9E1
:104DE00004804FF01209202750460091FCF7DDFAAD
:104DF0000546CBF10706FFF719FD022802D107F09F
:104E000062FD30B1FFF712FD052804D104F0F9FE70
:104E100008B94FF00209BBF1000F1CD0002E55DB82
:104E20004FF0000CB9F1000F49D9012101FA06F346
:104E3000701E01FA00FB0021002F3CD935F8020B4F
:104E40002278A0EB080000B25FEAD21E23D000282F
:104E500027DA2EBB1BE00023B9F1000F2FD9002168
:104E6000002F10D935F8022B2078A2EB080212B2DD
:104E7000502AC8BF40F0800040F04000491C04F8B0
:104E8000010BB942EED35B1C4B45E8D317E010F1A0
:104E9000280F05DB0AE0002803DD0EB9282805DD10
:104EA0009A43002EC4BF4BEA0200C2B204F8012BA1
:104EB000491CB942C2D30CF1010CCC45BBD30098BC
:104EC000FFF7D9FE002E08BF4FF0010A5046BDE89B
:104ED000F88F000034330020D405002000F81100C2
:104EE000544352461416002074350020ABAAAAAAD7
:104EF000AC821100FD498880704770B5FB4EFC49BB
:104F0000F08009680320C8610425E9B27F20FBF71F
:104F10009BFA0024B179E0B2FBF796FA04F1200085
:104F2000B179C0B2FBF790FA04F14000B179C0B298
:104F3000FBF78AFA641C202CECDB6D1C072DE4DBEC
:104F400070BD2DE9F04F89B00026FCF749F8E8491B
:104F5000072009680865E748016841F02001016001
:104F60000020FFF7CAFFE1494FF4006088804FF44A
:104F70001071E14811F095FE0020FBF7CEFEFCF722
:104F800054F900252C460795FFF753FC04F02DF843
:104F900001281DD06846FCF7F0FBB8B10120FBF7F3
:104FA000BCFE684604F04BFC6D1C012D0ED00025A4
:104FB000D1492046FFF70CFF072C1ED00020FBF73D
:104FC000ACFEFCF7F7FBFCF730F9641C002EDDD0DB
:104FD000FFF72FFCC54AC948C74BD0600020D168F5
:104FE00013F800C0401C01F801CBD160B0F5107F70
:104FF000F5D3079800283CD135E012200890BB4833
:1050000000274FF0200BB0F904603846FCF7CDF9CB
:105010000546BA460024BBF1000F18D9304612F0FD
:10502000F2FAB74AB74B12F055FB8946804635F97C
:10503000022B901B48BFB01A12F0E5FA42464B46CD
:1050400012F046FC38BF7F1C641C5C45EFD3089807
:105050000AF1010A8245DDD3002F4FF001061CBF83
:1050600001200790B4E7002E1EBF002009B0BDE864
:10507000F08F012009B0BDE8F08FF0B587B00026B1
:105080000120FBF7F0FD9B48016841F02001016021
:105090000020FFF732FF95494FF4006088809A495D
:1050A0000020C1F88000C1F88400C1F88800C1F870
:1050B0008C00C1F89000C1F89400C1F89800C1F8C4
:1050C0009C00C1F8A000C1F8A400C1F8A800C1F874
:1050D000AC00C1F8B000C1F8B400C1F8B800C1F824
:1050E000BC00FBF71AFEFCF7A0F800252C462F4663
:1050F00003F07BFF012835D06846FCF73EFB78B310
:105100000120FBF70AFE6D1C012D24D000257F49EC
:105110002046FFF75DFE072C06D00020FBF7FDFDC3
:10512000FCF783F8641C1BE0002420252046FCF7D4
:105130003CF9002130F9022BA2F26662B2F54D7FF4
:1051400088BF641C491CB1EB450FF3D3002C08BF8A
:1051500001260DD106E00020FBF7DFFDFCF765F826
:10516000002EC5D027B9002E1EBF002007B0F0BD0D
:10517000012007B0F0BD2DE9F04F82460021ADF5CA
:10518000137D634890910C4600780F460D46022827
:1051900008BF022703D0052804BF02240427DFF834
:1051A0005091DFF870B100F098B9204605F01EFD6F
:1051B000002800F09181008900EA0A0626F0CC0060
:1051C00030F47C4000F08881DFF84C81D8F8000092
:1051D0004069D8F8001040F400704861D8F8000029
:1051E0000069D8F8001020F006000861D8F8000027
:1051F0000069D8F8001040F0100008613CB1012CA3
:1052000035D0022C71D0032C55D000F0FBB8022110
:105210000846FFF71DFB0120FBF725FD05F04BFBC2
:105220000F212046FFF7CEFB002800F05581D9F86A
:105230000000406CD9F8001040F40060486400BFE2
:1052400000BF00BFD9F80000406CD9F8001020F46E
:1052500000604864FBF79BFC05F01AFB012007F097
:10526000E4FB0020FBF759FDFCF7A4FACAE000219B
:105270000220FFF7EDFA0120FBF7F5FC0F21204695
:10528000FFF7A0FB002800F02781D9F80000406C50
:10529000D9F8001040F40060486400BF00BF00BFB0
:1052A000D9F80000406CD9F8001020F40060486480
:1052B000FBF76DFCA6E000210520FFF7C9FAFBF71C
:1052C0008FFED8F800000069D8F8001020F0060022
:1052D0000861D8F800000069D8F8001040F0040018
:1052E0000861D8F80000006918E03EE0D40500200D
:1052F000AC82110064050020743500203433002096
:105300009A9999999999B93F34370020B437002078
:1053100029060020B082110094821100D8F80010F4
:1053200040F01000086109F06FFA0F210220FFF72A
:1053300049FB00287ED0DBF8001007208860DBF8EE
:1053400000100420486002212020FCF747F80020CC
:10535000FBF7E3FCFBF740FFDBF800000068DBF83D
:10536000001040F0010008604CE002210520FFF72A
:105370006FFAFBF735FED8F800000069D8F8001086
:1053800020F006000861D8F800000069D8F8001085
:1053900040F004000861D8F800000069D8F8001057
:1053A00040F01000086109F02FFA05F071FA0F21A2
:1053B0000320FFF707FB00283CD0DBF800107F201C
:1053C0008860DBF8001002204860D9F80000406CCB
:1053D000D9F8001040F400604864012007F026F975
:1053E000D9F80000406CD9F8001020F4006048643F
:1053F000FBF7F2FEDBF800000068DBF8001040F07D
:10540000010008609098002862D116F0010F23D0A7
:105410000120FBF728FCFFF70CFA88B1FCF7A2F893
:10542000FF210F20FFF78DFD012121EA0000054338
:10543000002000E050E0FBF770FC909890BB0BE080
:10544000FCF790F8FF210F20FFF717FE012121EA5A
:10545000000045EA4005EBE716F0060F22D0FFF703
:10546000E8F902281ED1FEF701FB0020FEF763FDDC
:105470000120FBF7F8FBFEF758FC0646FFF743FA5E
:105480000523320004D090F92D10184605F0F0FBEA
:10549000FEF74BFCFEF739FDFEF747FC4FF4906139
:1054A00011F0DDFBFFF72FFA804604209190FFF703
:1054B000C0F9002818BFFE4E1DD098F92C103246B6
:1054C000919805F0D5FBFB4900200870FBF784FE9E
:1054D000FFF7ACF9FFF7FBFA641CBC4203D29098CB
:1054E00000283FF462AEF449002008700DF5137DEA
:1054F0002846BDE8F08F6E463046FCF75FF9DCE7E2
:1055000070B5ED48CCB04578FFF790F901287DD112
:10551000EA480068B0F93610B0F9340004F086FFAC
:1055200015F0020F73D0002140A8FFF70DFB45983E
:10553000401C459040F27770FFF71DFEC0B2032873
:1055400010D0002804BF45F25000449012D001282A
:1055500008BF4AF250100CD0022808BF45F2A10043
:1055600007D007E04AF2A11044904698401C4690AC
:1055700008E0449047980022401C479021210720D2
:1055800006F0AFFD40AC05F022FB40B181694891C7
:10559000C169499141694A91C0684B9005E04FF05B
:1055A000FF304B904A9049904890C54840904FF446
:1055B000887041903020429000204390A36822469A
:1055C000014652F820C0401C6144B0EB930FF8D361
:1055D0004E42FF22511C6846E66011F038FBA2687B
:1055E000F4E804018DE847000FCC04AE86E80F0014
:1055F00094E80F0008AE203C86E80F004FF4FC3022
:105600006946FCF76EFFAF49226801E022E00DE039
:105610000A6062684A6022698A606269CA60A26937
:105620000A61E2694A61226A8A610CE015F0010FA1
:1056300009D040F22220FFF79EFD20B9002221214F
:10564000072006F04EFDFEF76BFB2A46402107209F
:1056500006F047FD4CB0BDE8704003F0C2BC70B529
:105660000C469949054603200968C86101217F203D
:10567000FAF7EAFE00217520FAF7E6FE012176200E
:10568000FAF7E2FE60210820FAF7DEFE0021092089
:10569000FAF7DAFE30210A20FAF7D6FE00210B20B5
:1056A000FAF7D2FE06210E20FAF7CEFEE1B226204E
:1056B000FAF7CAFEE1B22720FAF7C6FEE1B22820C7
:1056C000FAF7C2FEE1B22920FAF7BEFEE1B22A20C3
:1056D000FAF7BAFEE1B23020FAF7B6FEE1B23120B5
:1056E000FAF7B2FEE1B23220FAF7AEFEE1B23320B1
:1056F000FAF7AAFEE1B23420FAF7A6FEE1B23620AC
:10570000FAF7A2FEE1B23720FAF79EFEE1B23820A6
:10571000FAF79AFEE1B23920FAF796FEE1B23A20A2
:10572000FAF792FEE1B24020FAF78EFEE1B2412094
:10573000FAF78AFEE1B24220FAF786FEE1B2432090
:10574000FAF782FEE1B24420FAF77EFEE1B246208B
:10575000FAF77AFEE1B24720FAF776FEE1B2482086
:10576000FAF772FEE1B24920FAF76EFEE1B24A2082
:10577000FAF76AFEE1B25020FAF766FEE1B2512074
:10578000FAF762FEE1B25220FAF75EFEE1B2532070
:10579000FAF75AFEE1B25420FAF756FEE1B256206B
:1057A000FAF752FEE1B25720FAF74EFEE1B2582066
:1057B000FAF74AFEE1B25920FAF746FEE1B25A2062
:1057C000FAF742FEE1B26020FAF73EFEE1B2612054
:1057D000FAF73AFEE1B26220FAF736FEE1B2632050
:1057E000FAF732FEE1B26420FAF72EFEE1B266204B
:1057F000FAF72AFEE1B26720FAF726FEE1B2682046
:10580000FAF722FEE1B26920FAF71EFEE1B26A2041
:10581000FAF71AFE02217F20FAF716FE6A2102200B
:10582000FAF712FE8E210420FAF70EFEF12107206E
:10583000FAF70AFE15B1012D05D008E00421062073
:10584000FAF702FE03E008210620FAF7FDFD032126
:105850007F20FAF7F9FD21211020FAF7F5FD00214C
:105860001120FAF7F1FD00211220FAF7EDFD0021D9
:105870001320FAF7E9FD00211420FAF7E5FD0021D5
:105880001520FAF7E1FD01211620FAF7DDFD0221CE
:105890001720FAF7D9FD00211820FAF7D5FD0021CD
:1058A0001920FAF7D1FD00211A20FAF7CDFD0DE0FD
:1058B0007435002015070020D4050020E8060020DC
:1058C0005443524614160020AC82110000211B20C4
:1058D000FAF7BAFD01212020FAF7B6FD2021212098
:1058E000FAF7B2FD00212220FAF7AEFD00212320B5
:1058F000FAF7AAFD00212420FAF7A6FD00212520B1
:10590000FAF7A2FD01212620FAF79EFD00212720AB
:10591000FAF79AFD02212820FAF796FD00212920A6
:10592000FAF792FD00212A20FAF78EFD00212B20A4
:10593000FAF78AFD01213020FAF786FD0021312097
:10594000FAF782FD20213220FAF77EFD0021332074
:10595000FAF77AFD00213420FAF776FD0021352090
:10596000FAF772FD01213620FAF76EFD002137208B
:10597000FAF76AFD00213820FAF766FD0221392086
:10598000FAF762FD00213A20FAF75EFD00213B2084
:10599000FAF75AFD01214020FAF756FD0021412077
:1059A000FAF752FD00214220FAF74EFD2021432054
:1059B000FAF74AFD00214420FAF746FD0021452070
:1059C000FAF742FD01214620FAF73EFD002147206B
:1059D000FAF73AFD00214820FAF736FD0021492068
:1059E000FAF732FD02214A20FAF72EFD00214B2062
:1059F000FAF72AFD01215020FAF726FD0021512057
:105A0000FAF722FD00215220FAF71EFD0021532053
:105A1000FAF71AFD20215420FAF716FDBDE8704070
:105A200000215520FAF710BD10B50322FD490628C4
:105A300028BF10BDDFE800F00327FDFCFBFA086873
:105A4000C26101217F20FAF7FFFCAF210820FAF79D
:105A5000FBFC73210A20FAF7F7FC0A210E20FAF763
:105A6000F3FC02217F20FAF7EFFC00210720FAF770
:105A7000EBFC1F210120FAF7E7FC1021BDE81040E4
:105A80000620FAF7E1BC0868C26101217F20FAF71D
:105A9000DBFC0F210E20FAF7D7FC87210820FAF74C
:105AA000D3FC6E210A20FAF7CFFC02217F20FAF7FF
:105AB000CBFC71210720FAF7C7FC6A210220FAF714
:105AC000C3FC8E210420FAF7BFFC03217F20FAF7E4
:105AD000BBFC61211020FAF7B7FC00211120FAF776
